:400000000010002011000000090700000907000010B500F081FBC04670B50F4C23688022D20213432360182000F046FC22680B4B134023600A4A0B4B1A60063A0A4B1A607B
:40004000002525600949092000F01AFC092000F00BFC074B1D6070BD00010B40FFFFFBFF0600008004010B4008010B40C90A00000C020B4010B572B600240FE01A486200DB
:40008000131959000B00411889881A5AC31858880004104300F032FB0134E4B2012CEDD9EE221202114B1A6099231B04104A1360104A1360104A1360104A117806230B434F
:4000C000DBB2137080220E4B1A608022D2030D4B1A60C02252030C4B1A60DB22D2010B4B1A60FFF799FF10BDD81D00000C00014000500F4010500F4030500F4000700F4011
:400100000000044008000440080104400803044010B5064C2378002B07D1054B002B02D0044800E000BF0123237010BD4801002000000000D41D0000084B10B5002B03D0B2
:400140000749084800E000BF07480368002B00D110BD064B002BFBD09847F9E7000000004C010020D41D0000C000002000000000F0B5474680B405000E0017009846104BB0
:400180001B68002B07D011E03A003100280000F039FB013400E00024182CF5DD00F040FB43469B0043445A00054B1A60044B1B68002B02D0013B024A136004BC9046F0BDBC
:4001C00064010020F0B583B001900E0017001D001B4B5B68052B02D10022194B5A60184B1B68002B15D021E0154B58682018052100F056FD002905D13A003100019800F0B8
:4002000001FB04E000220021002000F0FBFA013400E00024182CE7D900F002FBAB005B195A00074B1A605A6801325A60044B1B68002B02D0013B024A136003B0F0BDC04648
:4002400064010020F0B54F4680B482B0019115009946284B9B68834202D10022254B9A60244B1B68002B39D1224B9C68002626E0214B9C4202D9214B9C466444230AE7B294
:40028000FF221340012B0BD0002B02D0022B0ED013E0F843C0B20022390000F0B3FA0CE0F943C9B23A00002000F0ACFA05E0FA43D2B20021380000F0A5FA64190136182E08
:4002C000D6D900F0ADFA0B4A019B91688C46634493604B469B004B4459001160054B1B68002B02D0013B034A136002B004BC9146F0BDC04664010020FF02000000FDFFFF94
:40030000F0B5474680B482B001900D0017001E00444BDB68002B44D1434B1B78022B40D80021404A1160012B08D100233A002900FFF71EFF00223C4B1A7008E000230022C0
:4003400000210020FFF714FF0122374B1A70354C206901F069FB354A354B00F0C5FC00F0A5FC2061E060012810D10023002200210020FFF7FDFE2B4A80235B0053610321D7
:40038000294B1970FA235B007343D360254B1B69002B06D12D33FF337343224A13610023D360204BDB68002B02D0013B1D4AD3601C4BDB68002B31D11B4B1B78032B2DD1EE
:4003C000184B98465A69019C5443240A55432D0A7A43120AD2B2E9B2E0B20023FFF7C8FE43465B69002B02D0013B0E4A53610A21300000F0CFFB0B4BD8605B69002B0DD15D
:40040000002200210020FFF7B3FEFA235B005E43044B1E61DE600122034B1A7002B004BC9046F0BD64010020C4000020333333333333F33F10B57A4A13785278934202D04B
:400440000121774A9170764A5370012B00D1A7E0002B05D0022B00D1BFE0032B5BD0DEE06F4B9B78002B0BD06423002200210020FFF77EFE00226A4B9A700132694B1A705C
:40048000684CA279617920790023FFF771FE6379FF2B0FD0634A1278012A0BD10133DBB2604A5371117901391171FF2B02D102225C4B1A705B4B9B79FF2B0FD0594A127898
:4004C000022A0BD10133DBB2564A9371517901395171FF2B02D10322524B1A70514B1B78032B0CD14F4A1379013313719379013BDBB29371002B02D101224A4B1A7000F060
:40050000B3F8002800D18AE0002000F099F90322434B1A7083E0424B9B78002B0DD06423002200210020FFF723FE00233C4A937001213C4A11703C4A136000F095F800284F
:4005400009D0384A13780133DBB21370032B02D90122344B1A7000F09BF8002802D001222F4B1A702F4B1B78022B0BD0032B10D0012B54D1F433FF337F227F217F20FFF7D5
:4005800021FE4CE0FA23002200217F20FFF71AFE45E064237F2200210020FFF713FE3EE01F4B9B78002B08D06423002200210020FFF7DEFD00221A4B9A70FA235B000522C5
:4005C0001421FA208000FFF73DFE00F04DF8002825D00222124B1A7021E0114B9B78002B0FD06423002200210020FFF7C1FD00220B4B9A700C4B1A6001210A4A1170FF221B
:400600005A61FA239B00FF22FF21FF20FFF778FE00F02AF8002802D00022014B1A7010BDA0010020C40000206401002010B562B60C4B00221A7001329A7000F0F7F8002460
:4006400000F02CF8FFF7F6FEFA239B009C4207D900F002F943425841C0B200F0F1F800240134EDE7A0010020084B1B7A002B08D0064B9B7A002B06D10122044B9A720120D2
:4006800002E0002000E000207047C046A0010020014B587A7047C046A001002010B500F0C7F843425841C0B2124B1874002816D0DB68114A934203D801330E4AD36002E034
:4006C00001220C4B5A720B4BDB68322B11D9094B9B7A002B0DD10122064B1A7209E0054B0022DA605A729B7A002B02D0014B1A729A7210BDA00100209F86010010B50A0088
:40070000002101F05FFB10BD10B501F02FFB03680C2B00D1FEE7FEE770B50F4E0F4D13E029686B68AC68002202E001C901C30432A242FAD1E868002202E0002102C3043233
:400740008242FAD11035013E002EE9D101F014FBFFF76CFFFEE7C046010000007C1E000010B500230AE0032B03D89A000949505800E009489900094A885001332F2BF2D9DA
:40078000FFF778FC8022D205116801230B43136010BDC04600000000090700000000002070B500280ED00D4C236810252B432360022000F0DDF92368AB432360012000F0CB
:4007C000D7F90AE0054B1A6810210A431A601A688A431A60012000F0CBF970BD0003044070B50500082409E02B00234101201840FFF7D6FF6D00EDB2013CE4B2002CF3D182
:4008000070BDC04670B5050014000800FFF7E8FF2800FFF7E5FF2000FFF7E2FF70BDC04610B58220400000F03DF810BD7047C046024B1868C00901231840704704000440CF
:4008400004490A68D2B240239A438001184010430860704700010440024B18688009012318407047040104401F2318401E3B8340014A13607047C04600E100E001BE70472B
:4008800070B504000D001F2802D90020FFF7F6FF1034A40080239B059C4664442068256070BDC04610B5034B1B7B584300F060F910BDC046CC000020F0B557464E46C0B44A
:4008C00083B0040000F05EF90190E71E2D2F74D83F4B1B78DBB29C4208D83E4B1B78DBB29A463D4B1B78DBB2994631E03B4B1B78DBB29C4208D83A4B1B78DBB29A46394B46
:400900001B78DBB2994623E0374B1B78DBB29C4208D8364B1B78DBB29A46354B1B78DBB2994615E0334B1B78DBB29C4208D8324B1B78DBB29A46314B1B78DBB2994607E025
:400940002F4B1B78DBB29A462E4B1B78DBB299462D4BDE5D2F2E09D92A2C07D919222B4B1A60052000F004F9192503E0274B1D683F231D40B54206D9234BDA5D234B1A60E6
:40098000052000F0F5F81F4B9C4664442378DBB21F4A13601F4B52461A601F4B4A461A600520FFF77FFFB5420AD2174BDA5D174B1A60052000F0DCF802E00020FFF75EFF2E
:4009C000019800F0E3F803B00CBC91469A46F0BDC0F1FF0FC1F1FF0FC2F1FF0FC3F1FF0FC4F1FF0FC5F1FF0FC6F1FF0FC7F1FF0FC8F1FF0FC9F1FF0FCAF1FF0FCBF1FF0F7E
:400A0000CCF1FF0FCDF1FF0FE41D00002CFF0B4028FF0B401CFF0B4020FF0B40034B1868C0231B02184000D00120704700010B4010B500F0A7F8044A1368C02109020B43F5
:400A4000136000F0A3F810BD00010B4010B500F099F808490A68084B1A408024E40122430A600A6813408022120213430B6000F08DF810BD00010B40FF3FFFFF70B5050021
:400A800000F080F80400FFF7C9FF002803D0FFF7DDFF012100E0002108482840084A1568084B2B40184310601368012901D1FFF7BFFF200000F06AF870BDC0460404040030
:400AC00010020B40FBFBFBFF10B5244B1B685B0715D5234B1B685B070ED5224BD969042001401F4C22688A432260DA698243DA611B69002B00D098470420FFF7BFFF174B3D
:400B00001B685B0518D5164B1B685B0510D5154BD9698022D2001140114802688A430260D969114A0A40DA615B69002B00D098478020C000FFF7A2FF084B1B685B030CD597
:400B4000074B1B685B0304D5064B9B69002B00D098478020C002FFF791FF10BD10020B40E000002080010020FFFBFFFF000000000230800804D0C0460138FDD1C046C046E8
:400B8000C0467047EFF3108072B6704780F310887047C046002243088B4274D303098B425FD3030A8B4244D3030B8B4228D3030C8B420DD3FF22090212BA030C8B4202D3A7
:400BC0001212090265D0030B8B4219D300E0090AC30B8B4201D3CB03C01A5241830B8B4201D38B03C01A5241430B8B4201D34B03C01A5241030B8B4201D30B03C01A52412F
:400C0000C30A8B4201D3CB02C01A5241830A8B4201D38B02C01A5241430A8B4201D34B02C01A5241030A8B4201D30B02C01A5241CDD2C3098B4201D3CB01C01A5241830943
:400C40008B4201D38B01C01A524143098B4201D34B01C01A524103098B4201D30B01C01A5241C3088B4201D3CB00C01A524183088B4201D38B00C01A524143088B4201D35A
:400C80004B00C01A5241411A00D20146524110467047FFE701B5002000F006F802BDC0460029F7D076E770477047C04670B500220C4B04000D0000F023FF002804D120005A
:400CC000290000F07BFE70BD064B00222000290000F020FB00F072FE80231B069C466044F1E7C0460000E041F0B556464D4644465F46F0B41D000E034C00CB0F87B007008C
:400D000092468146360B640D98466AD06D4B9C4235D08022430F12041343F6001E43C3009946694B00279C460023644402932B0368001B0BED0F51469B46400D009500D156
:400D400078E0604B98426CD05B46DA004B0F802109040B4313439B465346D9005A4B9C46002360444246201A6A40924601901F430F2F00D9B0E05548BF00C05987463743F8
:400D800000D088E0002399460233082700260293CDE74346B34649460093029B009A9246022B00D0BFE1002153460122002689461A40444B002136030C0D2405360B2643D5
:400DC000434C1B0526401E437600D207760816434846310007B03CBC90469946A246AB46F0BD330003434FD0002E00D1BCE1300000F090FE03000B3B1C2B00DDADE11D2292
:400E00000100D31A08393A008F408E40DA40B9461643304B00279C46002360444442029385E753465A4613432CD1002300219B46023397E70B4320D05B46002B00D19EE1AA
:400E4000584600F067FE03000B3B1C2B00DD8FE102005946083A91408B461D21CB1A5146D9400B0059460B4351469B469140194B9C4660444042002374E7002300219B46FA
:400E800001336FE703236DE70023994601330427002602934BE703230C27029347E70122D51A382D00DCB0E153461A4000210023002689467EE7002380269946002236034C
:400EC000004B77E7FF07000001FCFFFF141E0000FFFF0F80F30300005E4500D972E100D16DE1019B4D46013B01930023340002935B461E020B0E1E430B020393330C9946BE
:400F000033041B0C494620000093FFF743FE009B370043430600494620009846FFF7C0FE2C0C09040C43A04509D9E419731EA74200D95CE1A04500D859E1023EE419434696
:400F4000E41A49462000FFF725FE0300009A80465343494620009B46FFF7A2FE2A040904120C0A4393450DD94346D219013B974200D93AE1934500D837E102235B429C463F
:400F8000D219E0445B46D21A4346360433439B460399180C0B0C1D00059309045B46090C0C001B041B0C4443049159436B4368431B190D0CEB189C4203D980246402A446CB
:400FC00060441C0C09041B04090C20185D18824200D2DEE000D1D7E0161A029B9C465D1BAC459B415B42F61AB74200D106E149463000FFF7CFFD009B0400434349463000A4
:401000009846FFF74DFE2E0C09040E43B04509D9F619631EB74200D9F3E0B04500D8F0E0023CF6194346F31A494618000293FFF7B1FD009B06004343494602989846FFF769
:401040002FFE2D0409042D0C0D43A84509D9ED19731EAF4200D9D6E0A84500D8D3E0023EED192404210043463143049E059A3000ED1A0B040C0C1B0C58436643534354435B
:401080009A19030C9B189E4203D980225202944664441A0C00041B04000C14191B18A54250D34DD001231943964A019B94466344002B00DCF3E64A0709D00F220A40042A7B
:4010C00005D00A1D8A42894149428B4411005A46D20108D55A468C4B1A4093468022D2009446019B6344894A934200DD5BE65A46C908500708435602514601225B05814656
:40110000360B5B0D0A4055E680231B031E4211D05A461A420ED15E461E433603360B2A0089467B4B46E6032B00D1E1E0012BBBD11A40BBE61E433603360B4246744B39E686
:40114000002BB1D07D194A1EAF4252D91100A542A8D1039A9A42A5D1A6E703003E00283B9E400023994654E600F0D4FC203041E603005246283B9A400021934677E6504602
:4011800000F0C8FC20305EE6029B0026AB4200D323E7039E0299B44661448846B045B6415B467642F619B218013B0291974213D290424FD800D18EE0161A9B460DE78945FB
:4011C00000D28EE674084B46F60735005B081D434B46DB0702938BE69742EDD10399029CA142E5D93E1A9B46F7E69846CAE61E00A5E6AC423ED874D0110053E7012149422F
:4012000052E71C000EE71E002BE71F2D3CDC20230A0058465B1B9840EA4099400243481E81415E461143EE404B0709D00F230B40042B05D00B00191D99429B415B42F618B2
:4012400033023CD55346012200211A40002601238946AFE502235B429C46039CE344A446029B63449846A045B6417642F6190293B218B1E603988A1E41008142B64176423F
:40128000F619AD19039161E71F225242D31A5A46DA401300202D29D040225846551BA8400143481E814107200B4318400026002809D00F2200261A401900042ABBD10B0061
:4012C00070077602360BDB0803439946012253461A4000236EE502998D42BBD89B4600267BE603989842C5D3110032E70020D7E780265B4636031E433603360B009A8946EC
:40130000034B57E5FF030000FFFFFFFEFE070000FF070000F0B557464E464546E0B40E001100F20F9246C500420F180337037400400A4E0F7F0A3043CF4E17435A00640D6A
:40134000520DDB0FC900B24200D1E5E001267340A61AB446534500D1AFE0002E00DC0DE1002A3AD103000B4300D0E4E06B0709D00F232B40042B05D02B1DAB42AD416D4275
:401380007F191D003B0200D488E0BB4B01349C4200D110E13A00B94B51461A4001235007ED08520264050543120B640D0B400021280012030D0D120B64052D0515436208B5
:4013C000AF4CDB072C401443640064081C4321001CBC90469946A246F0BDA74B9C42C5D080231B0418436346382B00DDFDE01F2B00DD30E1624620239B1A02009A40664633
:4014000090460A009940F24046464B1E99413243114363460200DA40691A8D429B410D00BA1A5B42D71A3B0235D57A02530A98464346002B00D1C4E0404600F06BFB0300C1
:40144000083B1F2B00DDC5E020222900D21A4746D1409F400A009D403A439C4200DDC0E01C1B631C1F2B00DDE4E0202114002800C91AD8408C408D400443DA40681E85416B
:4014800017002543002471E7424663461A4300D14CE2674645466B0700D069E7012351467807ED08FA080B40054373498C4238D012036405120B640D79E7002E00DC9AE094
:4014C000002A47D06C4A944200D14FE78022120410436246382A00DC08E10143481E81410022C9B24919D219A942BF410D007F42BF183A0200D442E15F4A0134944200D1A0
:401500004EE101205D4A69083A4028400843D507054357089A4629E706000E4300D017E714E72900114300D1F9E1802109030A431203120B3BE701235B429846C4446346BD
:40154000002B72D1691A8D429B413F1A5B42FF1A0D0068E702000A4300D107E7012252429046C4446246002A00D0E6E06918A942B6413F187642F7190D00BAE7002E00D02B
:4015800080E0621C5205520D012A00DCF9E06A1A91464D45B6413A1A7642921B9046120200D499E04D1BA9428941C71B49427A1A90469A463CE75246012300251340002296
:4015C000F5E6280000F0A6FA20300300083B1F2B00DC39E72A002838824000259C4200DC3EE7264FE41A1740C0E60143481E81410022C9B210E7002E00D0F1E0621C944695
:401600005205520D012A00DCA0E01B4A944500D1C5E06918A94292413F185242D2194908D5070D4357086446A0E6134B9C4200D0D9E69BE611001F3CE1400C00202B00D197
:4016400080E04021CB1A9A4015436A1E95410027254300241FE763460200203BDA406346202B71D0402366469B1B98400143481E814111430022CFE6FF070000FFFF7FFF70
:40168000FFFF0F80002C48D0CA4CA24200D1A2E07442A1468024240427434C46382C00DDDBE01F2C00DD44E14E462024A41B3E00A640A246B0464C462E00E640B446464659
:4016C000644626435446A5406C1EA54134002C434D46EF400D1B28E04A4643464D461A4300D0A5E6002300240025DEE61F2A5ADC66462022921B060096409146B046624654
:401700000E00D640424616434A4691404A1E9141020060463143C240E4E63C002C435AD0F443A146002C52D14D1BA9428941C71B49427F1A14009A4675E69E4A944200D0DF
:40174000C7E613E600227FE700208FE7002C00D0C8E03B002B4300D10FE103000B4300D104E66918A9429B413F185B42DF193B0200D41AE1904B0D001F406446F6E59A469F
:4017800089E63A002A43002C5CD1002A75D102000A4300D1CAE007000D009A46E6E564460022002581E662460600203AD6406246B046202A00D1B7E040226646921B904070
:4017C00001434246481E8141114300228AE6794CA24200D061E707000D0014009A46C5E5002C41D13C002C4378D0F443A146002C20D0704CA24271D04C46382C00DDB2E0EB
:401800001F2C00DDBCE02026341BA2463C005646B4404E46A0462C00F440A446444666463443A4465446A54064466E1EB54125434C46E7406D188D4289413F184942CF198C
:40184000140056E6002A2FD102000A4300D184E007000D009A46574C88E53D436F1EBD41ECB200270D1B60E7524CA24236D0744280263604A1463743BEE702000A4300D1E3
:4018800074E56A1A90464545B6413A1A7642921B9446120200D4F7E54D1BA9428941C71B49427F1A9A4661E502000A433AD0ED087C072C438025FA082D032A4208D0C7082A
:4018C0002F4205D145072C003A009A46C9080C43670FD200E5001743364C47E507000D00140043E53A002A4343D002000A4319D0ED087C072C438025FA082D032A4207D077
:40190000C6082E4204D147073C003200C9080C43D700620FE50017439A46264C26E50022002544E5234C21E5002049E700230025BBE54C463E00203CE6404C46B446202C8D
:4019400031D040244E46A61BB7403D436C1EA54164462C4300270D1BE7E6802200231203144C0025A1E53D436F1EBD410027EDB260E707000D000F4CF8E407000D00F5E45C
:401980004E463C00203EF440A0464C46202C0ED040244E46A41BA7403D436F1EBD4144460027254346E70027CFE70D0073E50027F2E7C046FF070000FFFF7FFF0B0330B577
:4019C000134D1A0B4B005B0DC90F0024AB4211DD104CA34210DC8024640322430E4CE41A1F2C0CDD0D48C31ADA4013005C42002900D11C00200030BD094BCC18FAE7E04056
:401A0000084CA44663449A4013000343EEE7C046FE0300001D0400003304000013040000FFFFFF7FEDFBFFFF70B5051E28D000F071F8154B154A1B1AD21A1F2A16DD2C0000
:401A4000134A0025D21A94405A052403240B520D002124030B0D240B1B0523430D4C1205234013435B002800590870BD0B212C00081AC440954024035A05240B520DE7E78C
:401A800000220024E4E7C0461E0400003304000013040000FFFF0F808446101C62468C46191C634600E0C0461FB500F0F5F8002801D40021C8421FBD10B500F049F84042B1
:401AC000013010BD10B500F0E7F8002801DB002010BD012010BDC04610B500F0DDF8002801DD002010BD012010BDC04610B500F06FF8002801DC002010BD012010BDC046FC
:401B000010B500F065F8002801DA002010BD012010BDC0461C2101231B04984201D3000C10391B0A984201D3000A08391B09984201D30009043902A2105C40187047C046D1
:401B400004030202010101010000000000000000F0B55F4656464D464446F0B41F035C00DB0F9A46194B0E034D00C90F8046360B6D0D8B4691463F0B640D9D4219D0134BC3
:401B80009C421BD00123A54206D018003CBC90469946A246AB46F0BDBE42F6D1C845F4D1D34510D0002DF0D1304303005A1E9341EBE7310001230143E7D1E0E73A43012364
:401BC000002AE2D1DEE70023DFE7C046FF070000F0B55F46444656464D46F0B41F033C0B2C4F0E034D00A3465C008446360B6D0DC90F9046640DDB0FBD422BD0254FBC4226
:401C00002ED0002D0ED130430700814678427841002C17D15F463A4314D14B460020002B0AD006E0002C02D15846024301D099421AD00123484218433CBC90469946A24619
:401C4000AB46F0BD0028F2D058425841012240421043F1E737000743D0D002204042EBE75F461743CDD0F8E7A542E2DC05DB5E45DFD808D000205E45DED248424841012366
:401C800040421843D8E7C445D3D80020C445F4D3D2E7C046FF070000F0B55F464D4644465646F0B41C03240BA4462F4C0F034D005E00C90F80463F0B6D0D8B469146760D7B
:401CC000DB0FA54220D0284CA64222D0002D12D1384344424441002E20D0002C0DD05C42634101245B421C4320003CBC90469946A246AB46F0BD002E17D05B4519D05B4623
:401D00005C4201231C43EFE7390002240143EBD1D9E7614602241143E6D1D7E761460A43DBD100240028DFD0E9E761460A43E4D1E5E7B54203DD01225C421443D4E7B54276
:401D4000CDDB6745DBD809D000246745CCD259464C426141012449420C43C5E7C845CED80024C845F3D3BFE7FF070000014B18687047C046440100200E4B70B500251E0096
:401D80000D4CE41AA410A54204D0AB00F35898470135F8E700F060F8084B00251E00084CE41AA410A54204D0AB00F35898470135F8E770BD641E0000641E0000641E000037
:401DC0006C1E000003008218934202D019700133FAE770470000000000300F40000400400F400004030405060708090A0B0C0E0F101112131415161718191B1C1D1E1F20C4
:401E000021222325262728292A2B2E2F3031323334350000D80E0000A60D0000AC0E00009C0D0000AC0E0000B60E0000AC0E00009C0D0000A60D0000A60D0000B60E000091
:401E40009C0D0000920D0000920D0000920D00000811000043000000F8B5C046F8BC08BC9E4670473901000061070000F8B5C046F8BC08BC9E46704711010000901E000092
:401E8000C00000208800000070000000000000000000000001000000FF000000010000000000E02EC05D00001800000000366E010404040000000000000000000000000055
:401EC0000000000000000000000000000000000000000000541E00000000000000000000000000000000000000000000000000000000000000000000000000000000000070
:401F00000000000000000000000000000000000000000000E4000020000000000000000000000000000000000000000000000000000000000000000000000000000000009D
:401F40000000000000000000000000000000000000000000000000000000000000000000000000000000000000000000000000000000000000000000000000000000000061
:401F80000000000000000000000000000000000000000000000000000000000000000000000000000000000000000000000000000000000000000000000000000000000021
:401FC00000000000000000000000000000000000000000000000000000000000000000000000000000000000000000000000000000000000000000000000000000000000E1
:4020000000000000000000000000000000000000000000000000000000000000000000000000000000000000000000000000000000000000000000000000000000000000A0
:0200000490303A
:0200000052B7F5
:0200000490402A
:200000000000000000000000000000000000000000000000000000000000000000000000E0
:0200000490501A
:0C000000000204C81193110104D2644AEC
:0200000490600A
:0100000001FE
:00000001FF